{
  "_format": "hh-sol-artifact-1",
  "contractName": "Todo",
  "sourceName": "contracts/Todo.sol",
  "abi": [
    {
      "inputs": [],
      "stateMutability": "nonpayable",
      "type": "constructor"
    },
    {
      "inputs": [
        {
          "internalType": "string",
          "name": "_data",
          "type": "string"
        }
      ],
      "name": "addTask",
      "outputs": [],
      "stateMutability": "nonpayable",
      "type": "function"
    },
    {
      "inputs": [
        {
          "internalType": "uint32",
          "name": "_id",
          "type": "uint32"
        }
      ],
      "name": "getTask",
      "outputs": [
        {
          "components": [
            {
              "internalType": "string",
              "name": "data",
              "type": "string"
            },
            {
              "internalType": "bool",
              "name": "completed",
              "type": "bool"
            }
          ],
          "internalType": "struct Todo.Task",
          "name": "",
          "type": "tuple"
        }
      ],
      "stateMutability": "view",
      "type": "function"
    },
    {
      "inputs": [],
      "name": "getTaskList",
      "outputs": [
        {
          "components": [
            {
              "internalType": "string",
              "name": "data",
              "type": "string"
            },
            {
              "internalType": "bool",
              "name": "completed",
              "type": "bool"
            }
          ],
          "internalType": "struct Todo.Task[]",
          "name": "",
          "type": "tuple[]"
        }
      ],
      "stateMutability": "view",
      "type": "function"
    },
    {
      "inputs": [
        {
          "internalType": "uint32",
          "name": "_id",
          "type": "uint32"
        }
      ],
      "name": "removeTask",
      "outputs": [],
      "stateMutability": "nonpayable",
      "type": "function"
    },
    {
      "inputs": [
        {
          "internalType": "uint32",
          "name": "_id",
          "type": "uint32"
        }
      ],
      "name": "toggleCompleted",
      "outputs": [],
      "stateMutability": "nonpayable",
      "type": "function"
    },
    {
      "inputs": [
        {
          "internalType": "uint32",
          "name": "_id",
          "type": "uint32"
        },
        {
          "internalType": "string",
          "name": "_data",
          "type": "string"
        }
      ],
      "name": "updateTaskData",
      "outputs": [],
      "stateMutability": "nonpayable",
      "type": "function"
    }
  ],
  "bytecode": "0x60806040523480156200001157600080fd5b506200003c60405180606001604052806021815260200162000ff5602191396200004260201b60201c565b620001e4565b6000604051806040016040528083815260200160001515815250905060008190806001815401808255809150506001900390600052602060002090600202016000909190919091506000820151816000019080519060200190620000a8929190620000cf565b5060208201518160010160006101000a81548160ff02191690831515021790555050505050565b828054620000dd906200017f565b90600052602060002090601f0160209004810192826200010157600085556200014d565b82601f106200011c57805160ff19168380011785556200014d565b828001600101855582156200014d579182015b828111156200014c5782518255916020019190600101906200012f565b5b5090506200015c919062000160565b5090565b5b808211156200017b57600081600090555060010162000161565b5090565b600060028204905060018216806200019857607f821691505b60208210811415620001af57620001ae620001b5565b5b50919050565b7f4e487b7100000000000000000000000000000000000000000000000000000000600052602260045260246000fd5b610e0180620001f46000396000f3fe608060405234801561001057600080fd5b50600436106100625760003560e01c806338940fae146100675780633ad68c761461008557806357342d74146100a157806367238562146100d1578063714ff71f146100ed57806378c01ecc14610109575b600080fd5b61006f610125565b60405161007c9190610ac1565b60405180910390f35b61009f600480360381019061009a91906108f9565b610231565b005b6100bb60048036038101906100b691906108f9565b6102fc565b6040516100c89190610ae3565b60405180910390f35b6100eb60048036038101906100e691906108b8565b610411565b005b61010760048036038101906101029190610922565b61049c565b005b610123600480360381019061011e91906108f9565b610506565b005b60606000805480602002602001604051908101604052809291908181526020016000905b82821015610228578382906000526020600020906002020160405180604001604052908160008201805461017c90610c86565b80601f01602080910402602001604051908101604052809291908181526020018280546101a890610c86565b80156101f55780601f106101ca576101008083540402835291602001916101f5565b820191906000526020600020905b8154815290600101906020018083116101d857829003601f168201915b505050505081526020016001820160009054906101000a900460ff16151515158152505081526020019060010190610149565b50505050905090565b60008163ffffffff1681548110610271577f4e487b7100000000000000000000000000000000000000000000000000000000600052603260045260246000fd5b906000526020600020906002020160010160009054906101000a900460ff161560008263ffffffff16815481106102d1577f4e487b7100000000000000000000000000000000000000000000000000000000600052603260045260246000fd5b906000526020600020906002020160010160006101000a81548160ff02191690831515021790555050565b6103046106af565b60008263ffffffff1681548110610344577f4e487b7100000000000000000000000000000000000000000000000000000000600052603260045260246000fd5b906000526020600020906002020160405180604001604052908160008201805461036d90610c86565b80601f016020809104026020016040519081016040528092919081815260200182805461039990610c86565b80156103e65780601f106103bb576101008083540402835291602001916103e6565b820191906000526020600020905b8154815290600101906020018083116103c957829003601f168201915b505050505081526020016001820160009054906101000a900460ff1615151515815250509050919050565b60006040518060400160405280838152602001600015158152509050600081908060018154018082558091505060019003906000526020600020906002020160009091909190915060008201518160000190805190602001906104759291906106cb565b5060208201518160010160006101000a81548160ff02191690831515021790555050505050565b8060008363ffffffff16815481106104dd577f4e487b7100000000000000000000000000000000000000000000000000000000600052603260045260246000fd5b906000526020600020906002020160000190805190602001906105019291906106cb565b505050565b60008190505b600160008054905061051e9190610bea565b8163ffffffff16101561063657600060018261053a9190610bb0565b63ffffffff1681548110610577577f4e487b7100000000000000000000000000000000000000000000000000000000600052603260045260246000fd5b906000526020600020906002020160008263ffffffff16815481106105c5577f4e487b7100000000000000000000000000000000000000000000000000000000600052603260045260246000fd5b906000526020600020906002020160008201816000019080546105e790610c86565b6105f2929190610751565b506001820160009054906101000a900460ff168160010160006101000a81548160ff021916908315150217905550905050808061062e90610ce9565b91505061050c565b50600080548061066f577f4e487b7100000000000000000000000000000000000000000000000000000000600052603160045260246000fd5b60019003818190600052602060002090600202016000808201600061069491906107de565b6001820160006101000a81549060ff02191690555050905550565b6040518060400160405280606081526020016000151581525090565b8280546106d790610c86565b90600052602060002090601f0160209004810192826106f95760008555610740565b82601f1061071257805160ff1916838001178555610740565b82800160010185558215610740579182015b8281111561073f578251825591602001919060010190610724565b5b50905061074d919061081e565b5090565b82805461075d90610c86565b90600052602060002090601f01602090048101928261077f57600085556107cd565b82601f1061079057805485556107cd565b828001600101855582156107cd57600052602060002091601f016020900482015b828111156107cc5782548255916001019190600101906107b1565b5b5090506107da919061081e565b5090565b5080546107ea90610c86565b6000825580601f106107fc575061081b565b601f01602090049060005260206000209081019061081a919061081e565b5b50565b5b8082111561083757600081600090555060010161081f565b5090565b600061084e61084984610b2a565b610b05565b90508281526020810184848401111561086657600080fd5b610871848285610c44565b509392505050565b600082601f83011261088a57600080fd5b813561089a84826020860161083b565b91505092915050565b6000813590506108b281610db4565b92915050565b6000602082840312156108ca57600080fd5b600082013567ffffffffffffffff8111156108e457600080fd5b6108f084828501610879565b91505092915050565b60006020828403121561090b57600080fd5b6000610919848285016108a3565b91505092915050565b6000806040838503121561093557600080fd5b6000610943858286016108a3565b925050602083013567ffffffffffffffff81111561096057600080fd5b61096c85828601610879565b9150509250929050565b60006109828383610a47565b905092915050565b600061099582610b6b565b61099f8185610b8e565b9350836020820285016109b185610b5b565b8060005b858110156109ed57848403895281516109ce8582610976565b94506109d983610b81565b925060208a019950506001810190506109b5565b50829750879550505050505092915050565b610a0881610c1e565b82525050565b6000610a1982610b76565b610a238185610b9f565b9350610a33818560208601610c53565b610a3c81610da3565b840191505092915050565b60006040830160008301518482036000860152610a648282610a0e565b9150506020830151610a7960208601826109ff565b508091505092915050565b60006040830160008301518482036000860152610aa18282610a0e565b9150506020830151610ab660208601826109ff565b508091505092915050565b60006020820190508181036000830152610adb818461098a565b905092915050565b60006020820190508181036000830152610afd8184610a84565b905092915050565b6000610b0f610b20565b9050610b1b8282610cb8565b919050565b6000604051905090565b600067ffffffffffffffff821115610b4557610b44610d74565b5b610b4e82610da3565b9050602081019050919050565b6000819050602082019050919050565b600081519050919050565b600081519050919050565b6000602082019050919050565b600082825260208201905092915050565b600082825260208201905092915050565b6000610bbb82610c34565b9150610bc683610c34565b92508263ffffffff03821115610bdf57610bde610d16565b5b828201905092915050565b6000610bf582610c2a565b9150610c0083610c2a565b925082821015610c1357610c12610d16565b5b828203905092915050565b60008115159050919050565b6000819050919050565b600063ffffffff82169050919050565b82818337600083830152505050565b60005b83811015610c71578082015181840152602081019050610c56565b83811115610c80576000848401525b50505050565b60006002820490506001821680610c9e57607f821691505b60208210811415610cb257610cb1610d45565b5b50919050565b610cc182610da3565b810181811067ffffffffffffffff82111715610ce057610cdf610d74565b5b80604052505050565b6000610cf482610c34565b915063ffffffff821415610d0b57610d0a610d16565b5b600182019050919050565b7f4e487b7100000000000000000000000000000000000000000000000000000000600052601160045260246000fd5b7f4e487b7100000000000000000000000000000000000000000000000000000000600052602260045260246000fd5b7f4e487b7100000000000000000000000000000000000000000000000000000000600052604160045260246000fd5b6000601f19601f8301169050919050565b610dbd81610c34565b8114610dc857600080fd5b5056fea2646970667358221220085924685b1e8a22d5453c89cbe577d0ff6712e9adc3daa03efdccf5f58e867c64736f6c63430008040033636f6d706c6574652061737369676e6d656e742062792032326e64204d61792e21",
  "linkReferences": {},
  "deployedLinkReferences": {}
}