{
  "_format": "hh-sol-artifact-1",
  "contractName": "Todo",
  "sourceName": "contracts/Todo.sol",
  "abi": [
    {
      "inputs": [],
      "stateMutability": "nonpayable",
      "type": "constructor"
    },
    {
      "inputs": [
        {
          "internalType": "string",
          "name": "_data",
          "type": "string"
        }
      ],
      "name": "addTask",
      "outputs": [],
      "stateMutability": "nonpayable",
      "type": "function"
    },
    {
      "inputs": [
        {
          "internalType": "uint256",
          "name": "_id",
          "type": "uint256"
        }
      ],
      "name": "getTask",
      "outputs": [
        {
          "components": [
            {
              "internalType": "string",
              "name": "data",
              "type": "string"
            },
            {
              "internalType": "bool",
              "name": "completed",
              "type": "bool"
            }
          ],
          "internalType": "struct Todo.Task",
          "name": "",
          "type": "tuple"
        }
      ],
      "stateMutability": "view",
      "type": "function"
    },
    {
      "inputs": [],
      "name": "getTaskList",
      "outputs": [
        {
          "components": [
            {
              "internalType": "string",
              "name": "data",
              "type": "string"
            },
            {
              "internalType": "bool",
              "name": "completed",
              "type": "bool"
            }
          ],
          "internalType": "struct Todo.Task[]",
          "name": "",
          "type": "tuple[]"
        }
      ],
      "stateMutability": "view",
      "type": "function"
    },
    {
      "inputs": [
        {
          "internalType": "uint256",
          "name": "_id",
          "type": "uint256"
        }
      ],
      "name": "removeTask",
      "outputs": [],
      "stateMutability": "nonpayable",
      "type": "function"
    },
    {
      "inputs": [
        {
          "internalType": "uint256",
          "name": "_id",
          "type": "uint256"
        }
      ],
      "name": "toggleCompleted",
      "outputs": [],
      "stateMutability": "nonpayable",
      "type": "function"
    },
    {
      "inputs": [
        {
          "internalType": "uint256",
          "name": "_id",
          "type": "uint256"
        },
        {
          "internalType": "string",
          "name": "_data",
          "type": "string"
        }
      ],
      "name": "updateTaskData",
      "outputs": [],
      "stateMutability": "nonpayable",
      "type": "function"
    }
  ],
  "bytecode": "0x60806040523480156200001157600080fd5b506200003c60405180606001604052806021815260200162000d3f602191396200004260201b60201c565b620001e4565b6000604051806040016040528083815260200160001515815250905060008190806001815401808255809150506001900390600052602060002090600202016000909190919091506000820151816000019080519060200190620000a8929190620000cf565b5060208201518160010160006101000a81548160ff02191690831515021790555050505050565b828054620000dd906200017f565b90600052602060002090601f0160209004810192826200010157600085556200014d565b82601f106200011c57805160ff19168380011785556200014d565b828001600101855582156200014d579182015b828111156200014c5782518255916020019190600101906200012f565b5b5090506200015c919062000160565b5090565b5b808211156200017b57600081600090555060010162000161565b5090565b600060028204905060018216806200019857607f821691505b60208210811415620001af57620001ae620001b5565b5b50919050565b7f4e487b7100000000000000000000000000000000000000000000000000000000600052602260045260246000fd5b610b4b80620001f46000396000f3fe608060405234801561001057600080fd5b50600436106100625760003560e01c80631d65e77e1461006757806338940fae14610097578063455f5024146100b557806367238562146100d15780636d6d42db146100ed578063c308411714610109575b600080fd5b610081600480360381019061007c919061071d565b610125565b60405161008e9190610907565b60405180910390f35b61009f610234565b6040516100ac91906108e5565b60405180910390f35b6100cf60048036038101906100ca919061071d565b610340565b005b6100eb60048036038101906100e691906106dc565b6103ff565b005b61010760048036038101906101029190610746565b61048a565b005b610123600480360381019061011e919061071d565b6104ee565b005b61012d610560565b60008281548110610167577f4e487b7100000000000000000000000000000000000000000000000000000000600052603260045260246000fd5b906000526020600020906002020160405180604001604052908160008201805461019090610a2c565b80601f01602080910402602001604051908101604052809291908181526020018280546101bc90610a2c565b80156102095780601f106101de57610100808354040283529160200191610209565b820191906000526020600020905b8154815290600101906020018083116101ec57829003601f168201915b505050505081526020016001820160009054906101000a900460ff1615151515815250509050919050565b60606000805480602002602001604051908101604052809291908181526020016000905b82821015610337578382906000526020600020906002020160405180604001604052908160008201805461028b90610a2c565b80601f01602080910402602001604051908101604052809291908181526020018280546102b790610a2c565b80156103045780601f106102d957610100808354040283529160200191610304565b820191906000526020600020905b8154815290600101906020018083116102e757829003601f168201915b505050505081526020016001820160009054906101000a900460ff16151515158152505081526020019060010190610258565b50505050905090565b6000818154811061037a577f4e487b7100000000000000000000000000000000000000000000000000000000600052603260045260246000fd5b906000526020600020906002020160010160009054906101000a900460ff1615600082815481106103d4577f4e487b7100000000000000000000000000000000000000000000000000000000600052603260045260246000fd5b906000526020600020906002020160010160006101000a81548160ff02191690831515021790555050565b600060405180604001604052808381526020016000151581525090506000819080600181540180825580915050600190039060005260206000209060020201600090919091909150600082015181600001908051906020019061046392919061057c565b5060208201518160010160006101000a81548160ff02191690831515021790555050505050565b80600083815481106104c5577f4e487b7100000000000000000000000000000000000000000000000000000000600052603260045260246000fd5b906000526020600020906002020160000190805190602001906104e992919061057c565b505050565b60008181548110610528577f4e487b7100000000000000000000000000000000000000000000000000000000600052603260045260246000fd5b9060005260206000209060020201600080820160006105479190610602565b6001820160006101000a81549060ff0219169055505050565b6040518060400160405280606081526020016000151581525090565b82805461058890610a2c565b90600052602060002090601f0160209004810192826105aa57600085556105f1565b82601f106105c357805160ff19168380011785556105f1565b828001600101855582156105f1579182015b828111156105f05782518255916020019190600101906105d5565b5b5090506105fe9190610642565b5090565b50805461060e90610a2c565b6000825580601f10610620575061063f565b601f01602090049060005260206000209081019061063e9190610642565b5b50565b5b8082111561065b576000816000905550600101610643565b5090565b600061067261066d8461094e565b610929565b90508281526020810184848401111561068a57600080fd5b6106958482856109ea565b509392505050565b600082601f8301126106ae57600080fd5b81356106be84826020860161065f565b91505092915050565b6000813590506106d681610afe565b92915050565b6000602082840312156106ee57600080fd5b600082013567ffffffffffffffff81111561070857600080fd5b6107148482850161069d565b91505092915050565b60006020828403121561072f57600080fd5b600061073d848285016106c7565b91505092915050565b6000806040838503121561075957600080fd5b6000610767858286016106c7565b925050602083013567ffffffffffffffff81111561078457600080fd5b6107908582860161069d565b9150509250929050565b60006107a6838361086b565b905092915050565b60006107b98261098f565b6107c381856109b2565b9350836020820285016107d58561097f565b8060005b8581101561081157848403895281516107f2858261079a565b94506107fd836109a5565b925060208a019950506001810190506107d9565b50829750879550505050505092915050565b61082c816109d4565b82525050565b600061083d8261099a565b61084781856109c3565b93506108578185602086016109f9565b61086081610aed565b840191505092915050565b600060408301600083015184820360008601526108888282610832565b915050602083015161089d6020860182610823565b508091505092915050565b600060408301600083015184820360008601526108c58282610832565b91505060208301516108da6020860182610823565b508091505092915050565b600060208201905081810360008301526108ff81846107ae565b905092915050565b6000602082019050818103600083015261092181846108a8565b905092915050565b6000610933610944565b905061093f8282610a5e565b919050565b6000604051905090565b600067ffffffffffffffff82111561096957610968610abe565b5b61097282610aed565b9050602081019050919050565b6000819050602082019050919050565b600081519050919050565b600081519050919050565b6000602082019050919050565b600082825260208201905092915050565b600082825260208201905092915050565b60008115159050919050565b6000819050919050565b82818337600083830152505050565b60005b83811015610a175780820151818401526020810190506109fc565b83811115610a26576000848401525b50505050565b60006002820490506001821680610a4457607f821691505b60208210811415610a5857610a57610a8f565b5b50919050565b610a6782610aed565b810181811067ffffffffffffffff82111715610a8657610a85610abe565b5b80604052505050565b7f4e487b7100000000000000000000000000000000000000000000000000000000600052602260045260246000fd5b7f4e487b7100000000000000000000000000000000000000000000000000000000600052604160045260246000fd5b6000601f19601f8301169050919050565b610b07816109e0565b8114610b1257600080fd5b5056fea26469706673582212206dd0a6363af70fc3338092e3405a23f235a68fdcce6a6b3e42399d84bfa6f2c764736f6c63430008040033636f6d706c6574652061737369676e6d656e742062792032326e64204d61792e21",
  "linkReferences": {},
  "deployedLinkReferences": {}
}