{
  "_format": "hh-sol-artifact-1",
  "contractName": "Todo",
  "sourceName": "contracts/Todo.sol",
  "abi": [
    {
      "inputs": [],
      "stateMutability": "nonpayable",
      "type": "constructor"
    },
    {
      "inputs": [
        {
          "internalType": "string",
          "name": "_data",
          "type": "string"
        }
      ],
      "name": "addTask",
      "outputs": [],
      "stateMutability": "nonpayable",
      "type": "function"
    },
    {
      "inputs": [
        {
          "internalType": "uint256",
          "name": "_id",
          "type": "uint256"
        }
      ],
      "name": "getTask",
      "outputs": [
        {
          "components": [
            {
              "internalType": "string",
              "name": "data",
              "type": "string"
            },
            {
              "internalType": "bool",
              "name": "completed",
              "type": "bool"
            }
          ],
          "internalType": "struct Todo.Task",
          "name": "",
          "type": "tuple"
        }
      ],
      "stateMutability": "view",
      "type": "function"
    },
    {
      "inputs": [],
      "name": "getTaskList",
      "outputs": [
        {
          "components": [
            {
              "internalType": "string",
              "name": "data",
              "type": "string"
            },
            {
              "internalType": "bool",
              "name": "completed",
              "type": "bool"
            }
          ],
          "internalType": "struct Todo.Task[]",
          "name": "",
          "type": "tuple[]"
        }
      ],
      "stateMutability": "view",
      "type": "function"
    },
    {
      "inputs": [
        {
          "internalType": "uint256",
          "name": "_id",
          "type": "uint256"
        }
      ],
      "name": "removeTask",
      "outputs": [],
      "stateMutability": "nonpayable",
      "type": "function"
    },
    {
      "inputs": [
        {
          "internalType": "uint256",
          "name": "_id",
          "type": "uint256"
        }
      ],
      "name": "toggleCompleted",
      "outputs": [],
      "stateMutability": "nonpayable",
      "type": "function"
    },
    {
      "inputs": [
        {
          "internalType": "uint256",
          "name": "_id",
          "type": "uint256"
        },
        {
          "internalType": "string",
          "name": "_data",
          "type": "string"
        }
      ],
      "name": "updateTaskData",
      "outputs": [],
      "stateMutability": "nonpayable",
      "type": "function"
    }
  ],
  "bytecode": "0x60806040523480156200001157600080fd5b506200003c60405180606001604052806021815260200162000ff3602191396200004260201b60201c565b620001e4565b6000604051806040016040528083815260200160001515815250905060008190806001815401808255809150506001900390600052602060002090600202016000909190919091506000820151816000019080519060200190620000a8929190620000cf565b5060208201518160010160006101000a81548160ff02191690831515021790555050505050565b828054620000dd906200017f565b90600052602060002090601f0160209004810192826200010157600085556200014d565b82601f106200011c57805160ff19168380011785556200014d565b828001600101855582156200014d579182015b828111156200014c5782518255916020019190600101906200012f565b5b5090506200015c919062000160565b5090565b5b808211156200017b57600081600090555060010162000161565b5090565b600060028204905060018216806200019857607f821691505b60208210811415620001af57620001ae620001b5565b5b50919050565b7f4e487b7100000000000000000000000000000000000000000000000000000000600052602260045260246000fd5b610dff80620001f46000396000f3fe608060405234801561001057600080fd5b50600436106100625760003560e01c80631d65e77e1461006757806338940fae14610097578063455f5024146100b557806367238562146100d15780636d6d42db146100ed578063c308411714610109575b600080fd5b610081600480360381019061007c91906108cf565b610125565b60405161008e9190610ab9565b60405180910390f35b61009f610234565b6040516100ac9190610a97565b60405180910390f35b6100cf60048036038101906100ca91906108cf565b610340565b005b6100eb60048036038101906100e6919061088e565b6103ff565b005b610107600480360381019061010291906108f8565b61048a565b005b610123600480360381019061011e91906108cf565b6104ee565b005b61012d610685565b60008281548110610167577f4e487b7100000000000000000000000000000000000000000000000000000000600052603260045260246000fd5b906000526020600020906002020160405180604001604052908160008201805461019090610c68565b80601f01602080910402602001604051908101604052809291908181526020018280546101bc90610c68565b80156102095780601f106101de57610100808354040283529160200191610209565b820191906000526020600020905b8154815290600101906020018083116101ec57829003601f168201915b505050505081526020016001820160009054906101000a900460ff1615151515815250509050919050565b60606000805480602002602001604051908101604052809291908181526020016000905b82821015610337578382906000526020600020906002020160405180604001604052908160008201805461028b90610c68565b80601f01602080910402602001604051908101604052809291908181526020018280546102b790610c68565b80156103045780601f106102d957610100808354040283529160200191610304565b820191906000526020600020905b8154815290600101906020018083116102e757829003601f168201915b505050505081526020016001820160009054906101000a900460ff16151515158152505081526020019060010190610258565b50505050905090565b6000818154811061037a577f4e487b7100000000000000000000000000000000000000000000000000000000600052603260045260246000fd5b906000526020600020906002020160010160009054906101000a900460ff1615600082815481106103d4577f4e487b7100000000000000000000000000000000000000000000000000000000600052603260045260246000fd5b906000526020600020906002020160010160006101000a81548160ff02191690831515021790555050565b60006040518060400160405280838152602001600015158152509050600081908060018154018082558091505060019003906000526020600020906002020160009091909190915060008201518160000190805190602001906104639291906106a1565b5060208201518160010160006101000a81548160ff02191690831515021790555050505050565b80600083815481106104c5577f4e487b7100000000000000000000000000000000000000000000000000000000600052603260045260246000fd5b906000526020600020906002020160000190805190602001906104e99291906106a1565b505050565b60008190505b60016000805490506105069190610bdc565b81101561060c57600060018261051c9190610b86565b81548110610553577f4e487b7100000000000000000000000000000000000000000000000000000000600052603260045260246000fd5b90600052602060002090600202016000828154811061059b577f4e487b7100000000000000000000000000000000000000000000000000000000600052603260045260246000fd5b906000526020600020906002020160008201816000019080546105bd90610c68565b6105c8929190610727565b506001820160009054906101000a900460ff168160010160006101000a81548160ff021916908315150217905550905050808061060490610ccb565b9150506104f4565b506000805480610645577f4e487b7100000000000000000000000000000000000000000000000000000000600052603160045260246000fd5b60019003818190600052602060002090600202016000808201600061066a91906107b4565b6001820160006101000a81549060ff02191690555050905550565b6040518060400160405280606081526020016000151581525090565b8280546106ad90610c68565b90600052602060002090601f0160209004810192826106cf5760008555610716565b82601f106106e857805160ff1916838001178555610716565b82800160010185558215610716579182015b828111156107155782518255916020019190600101906106fa565b5b50905061072391906107f4565b5090565b82805461073390610c68565b90600052602060002090601f01602090048101928261075557600085556107a3565b82601f1061076657805485556107a3565b828001600101855582156107a357600052602060002091601f016020900482015b828111156107a2578254825591600101919060010190610787565b5b5090506107b091906107f4565b5090565b5080546107c090610c68565b6000825580601f106107d257506107f1565b601f0160209004906000526020600020908101906107f091906107f4565b5b50565b5b8082111561080d5760008160009055506001016107f5565b5090565b600061082461081f84610b00565b610adb565b90508281526020810184848401111561083c57600080fd5b610847848285610c26565b509392505050565b600082601f83011261086057600080fd5b8135610870848260208601610811565b91505092915050565b60008135905061088881610db2565b92915050565b6000602082840312156108a057600080fd5b600082013567ffffffffffffffff8111156108ba57600080fd5b6108c68482850161084f565b91505092915050565b6000602082840312156108e157600080fd5b60006108ef84828501610879565b91505092915050565b6000806040838503121561090b57600080fd5b600061091985828601610879565b925050602083013567ffffffffffffffff81111561093657600080fd5b6109428582860161084f565b9150509250929050565b60006109588383610a1d565b905092915050565b600061096b82610b41565b6109758185610b64565b93508360208202850161098785610b31565b8060005b858110156109c357848403895281516109a4858261094c565b94506109af83610b57565b925060208a0199505060018101905061098b565b50829750879550505050505092915050565b6109de81610c10565b82525050565b60006109ef82610b4c565b6109f98185610b75565b9350610a09818560208601610c35565b610a1281610da1565b840191505092915050565b60006040830160008301518482036000860152610a3a82826109e4565b9150506020830151610a4f60208601826109d5565b508091505092915050565b60006040830160008301518482036000860152610a7782826109e4565b9150506020830151610a8c60208601826109d5565b508091505092915050565b60006020820190508181036000830152610ab18184610960565b905092915050565b60006020820190508181036000830152610ad38184610a5a565b905092915050565b6000610ae5610af6565b9050610af18282610c9a565b919050565b6000604051905090565b600067ffffffffffffffff821115610b1b57610b1a610d72565b5b610b2482610da1565b9050602081019050919050565b6000819050602082019050919050565b600081519050919050565b600081519050919050565b6000602082019050919050565b600082825260208201905092915050565b600082825260208201905092915050565b6000610b9182610c1c565b9150610b9c83610c1c565b9250827fffffffffffffffffffffffffffffffffffffffffffffffffffffffffffffffff03821115610bd157610bd0610d14565b5b828201905092915050565b6000610be782610c1c565b9150610bf283610c1c565b925082821015610c0557610c04610d14565b5b828203905092915050565b60008115159050919050565b6000819050919050565b82818337600083830152505050565b60005b83811015610c53578082015181840152602081019050610c38565b83811115610c62576000848401525b50505050565b60006002820490506001821680610c8057607f821691505b60208210811415610c9457610c93610d43565b5b50919050565b610ca382610da1565b810181811067ffffffffffffffff82111715610cc257610cc1610d72565b5b80604052505050565b6000610cd682610c1c565b91507fffffffffffffffffffffffffffffffffffffffffffffffffffffffffffffffff821415610d0957610d08610d14565b5b600182019050919050565b7f4e487b7100000000000000000000000000000000000000000000000000000000600052601160045260246000fd5b7f4e487b7100000000000000000000000000000000000000000000000000000000600052602260045260246000fd5b7f4e487b7100000000000000000000000000000000000000000000000000000000600052604160045260246000fd5b6000601f19601f8301169050919050565b610dbb81610c1c565b8114610dc657600080fd5b5056fea264697066735822122028a52bd0b5939496b88049fe930b0e7fc404c15e7a3f474eb53e6f77bbbf748464736f6c63430008040033636f6d706c6574652061737369676e6d656e742062792032326e64204d61792e21",
  "linkReferences": {},
  "deployedLinkReferences": {}
}